{
  "_format": "hh-sol-artifact-1",
  "contractName": "SingleSwap",
  "sourceName": "contracts/UniSwap.sol",
  "abi": [
    {
      "inputs": [],
      "stateMutability": "nonpayable",
      "type": "constructor"
    },
    {
      "inputs": [],
      "name": "USDT",
      "outputs": [
        {
          "internalType": "address",
          "name": "",
          "type": "address"
        }
      ],
      "stateMutability": "view",
      "type": "function"
    },
    {
      "inputs": [],
      "name": "WETH",
      "outputs": [
        {
          "internalType": "address",
          "name": "",
          "type": "address"
        }
      ],
      "stateMutability": "view",
      "type": "function"
    },
    {
      "inputs": [],
      "name": "linkToken",
      "outputs": [
        {
          "internalType": "contract IIWETH",
          "name": "",
          "type": "address"
        }
      ],
      "stateMutability": "view",
      "type": "function"
    },
    {
      "inputs": [],
      "name": "owner",
      "outputs": [
        {
          "internalType": "address payable",
          "name": "",
          "type": "address"
        }
      ],
      "stateMutability": "view",
      "type": "function"
    },
    {
      "inputs": [],
      "name": "poolFee",
      "outputs": [
        {
          "internalType": "uint24",
          "name": "",
          "type": "uint24"
        }
      ],
      "stateMutability": "view",
      "type": "function"
    },
    {
      "inputs": [],
      "name": "routerAddress",
      "outputs": [
        {
          "internalType": "address",
          "name": "",
          "type": "address"
        }
      ],
      "stateMutability": "view",
      "type": "function"
    },
    {
      "inputs": [
        {
          "internalType": "uint256",
          "name": "amountIn",
          "type": "uint256"
        }
      ],
      "name": "swapExactInputSingle",
      "outputs": [
        {
          "internalType": "uint256",
          "name": "amountOut",
          "type": "uint256"
        }
      ],
      "stateMutability": "nonpayable",
      "type": "function"
    },
    {
      "inputs": [
        {
          "internalType": "uint256",
          "name": "amountOut",
          "type": "uint256"
        },
        {
          "internalType": "uint256",
          "name": "amountInMaximum",
          "type": "uint256"
        }
      ],
      "name": "swapExactOutputSingle",
      "outputs": [
        {
          "internalType": "uint256",
          "name": "amountIn",
          "type": "uint256"
        }
      ],
      "stateMutability": "nonpayable",
      "type": "function"
    },
    {
      "inputs": [],
      "name": "swapRouter",
      "outputs": [
        {
          "internalType": "contract ISwapRouter",
          "name": "",
          "type": "address"
        }
      ],
      "stateMutability": "view",
      "type": "function"
    }
  ],
  "bytecode": "0x60a060405273e592427a0aece92de3edee1f18e0157c0586156473ffffffffffffffffffffffffffffffffffffffff1660809073ffffffffffffffffffffffffffffffffffffffff1681525073c02aaa39b223fe8d0a0e5c4f27ead9083c756cc2600160006101000a81548173ffffffffffffffffffffffffffffffffffffffff021916908373ffffffffffffffffffffffffffffffffffffffff1602179055503480156100ac57600080fd5b50336000806101000a81548173ffffffffffffffffffffffffffffffffffffffff021916908373ffffffffffffffffffffffffffffffffffffffff16021790555060805161106161012b6000396000818161024a01528181610338015281816104180152818161047601528181610563015261062101526110616000f3fe608060405234801561001057600080fd5b50600436106100935760003560e01c80638da5cb5b116100665780638da5cb5b14610122578063ad5c464814610140578063c31c9c071461015e578063c4b69a181461017c578063c54e44eb146101ac57610093565b8063089fe6aa146100985780633268cc56146100b657806357970e93146100d457806373bd43ad146100f2575b600080fd5b6100a06101ca565b6040516100ad919061095d565b60405180910390f35b6100be6101d0565b6040516100cb91906109b9565b60405180910390f35b6100dc6101e8565b6040516100e99190610a33565b60405180910390f35b61010c60048036038101906101079190610a89565b61020e565b6040516101199190610ac5565b60405180910390f35b61012a6103da565b6040516101379190610b01565b60405180910390f35b6101486103fe565b60405161015591906109b9565b60405180910390f35b610166610416565b6040516101739190610b3d565b60405180910390f35b61019660048036038101906101919190610b58565b61043a565b6040516101a39190610ac5565b60405180910390f35b6101b461067a565b6040516101c191906109b9565b60405180910390f35b610bb881565b73e592427a0aece92de3edee1f18e0157c0586156481565b600160009054906101000a900473ffffffffffffffffffffffffffffffffffffffff1681565b600061023073c02aaa39b223fe8d0a0e5c4f27ead9083c756cc2333085610692565b61026f73c02aaa39b223fe8d0a0e5c4f27ead9083c756cc27f0000000000000000000000000000000000000000000000000000000000000000846107ea565b600060405180610100016040528073c02aaa39b223fe8d0a0e5c4f27ead9083c756cc273ffffffffffffffffffffffffffffffffffffffff16815260200173dac17f958d2ee523a2206206994597c13d831ec773ffffffffffffffffffffffffffffffffffffffff168152602001610bb862ffffff1681526020013373ffffffffffffffffffffffffffffffffffffffff16815260200142815260200184815260200160008152602001600073ffffffffffffffffffffffffffffffffffffffff1681525090507f000000000000000000000000000000000000000000000000000000000000000073ffffffffffffffffffffffffffffffffffffffff1663414bf389826040518263ffffffff1660e01b815260040161038f9190610c76565b6020604051808303816000875af11580156103ae573d6000803e3d6000fd5b505050506040513d601f19601f820116820180604052508101906103d29190610ca7565b915050919050565b60008054906101000a900473ffffffffffffffffffffffffffffffffffffffff1681565b73c02aaa39b223fe8d0a0e5c4f27ead9083c756cc281565b7f000000000000000000000000000000000000000000000000000000000000000081565b600061045c73c02aaa39b223fe8d0a0e5c4f27ead9083c756cc2333085610692565b61049b73c02aaa39b223fe8d0a0e5c4f27ead9083c756cc27f0000000000000000000000000000000000000000000000000000000000000000846107ea565b600060405180610100016040528073c02aaa39b223fe8d0a0e5c4f27ead9083c756cc273ffffffffffffffffffffffffffffffffffffffff16815260200173dac17f958d2ee523a2206206994597c13d831ec773ffffffffffffffffffffffffffffffffffffffff168152602001610bb862ffffff1681526020013373ffffffffffffffffffffffffffffffffffffffff168152602001428152602001858152602001848152602001600073ffffffffffffffffffffffffffffffffffffffff1681525090507f000000000000000000000000000000000000000000000000000000000000000073ffffffffffffffffffffffffffffffffffffffff1663db3e2198826040518263ffffffff1660e01b81526004016105ba9190610d76565b6020604051808303816000875af11580156105d9573d6000803e3d6000fd5b505050506040513d601f19601f820116820180604052508101906105fd9190610ca7565b9150828210156106735761064773c02aaa39b223fe8d0a0e5c4f27ead9083c756cc27f000000000000000000000000000000000000000000000000000000000000000060006107ea565b61067273c02aaa39b223fe8d0a0e5c4f27ead9083c756cc23330858761066d9190610dc1565b610692565b5b5092915050565b73dac17f958d2ee523a2206206994597c13d831ec781565b6000808573ffffffffffffffffffffffffffffffffffffffff166323b872dd60e01b8686866040516024016106c993929190610df5565b604051602081830303815290604052907bffffffffffffffffffffffffffffffffffffffffffffffffffffffff19166020820180517bffffffffffffffffffffffffffffffffffffffffffffffffffffffff83818316178352505050506040516107339190610e9d565b6000604051808303816000865af19150503d8060008114610770576040519150601f19603f3d011682016040523d82523d6000602084013e610775565b606091505b50915091508180156107a357506000815114806107a25750808060200190518101906107a19190610eec565b5b5b6107e2576040517f08c379a00000000000000000000000000000000000000000000000000000000081526004016107d990610f76565b60405180910390fd5b505050505050565b6000808473ffffffffffffffffffffffffffffffffffffffff1663095ea7b360e01b858560405160240161081f929190610f96565b604051602081830303815290604052907bffffffffffffffffffffffffffffffffffffffffffffffffffffffff19166020820180517bffffffffffffffffffffffffffffffffffffffffffffffffffffffff83818316178352505050506040516108899190610e9d565b6000604051808303816000865af19150503d80600081146108c6576040519150601f19603f3d011682016040523d82523d6000602084013e6108cb565b606091505b50915091508180156108f957506000815114806108f85750808060200190518101906108f79190610eec565b5b5b610938576040517f08c379a000000000000000000000000000000000000000000000000000000000815260040161092f9061100b565b60405180910390fd5b5050505050565b600062ffffff82169050919050565b6109578161093f565b82525050565b6000602082019050610972600083018461094e565b92915050565b600073ffffffffffffffffffffffffffffffffffffffff82169050919050565b60006109a382610978565b9050919050565b6109b381610998565b82525050565b60006020820190506109ce60008301846109aa565b92915050565b6000819050919050565b60006109f96109f46109ef84610978565b6109d4565b610978565b9050919050565b6000610a0b826109de565b9050919050565b6000610a1d82610a00565b9050919050565b610a2d81610a12565b82525050565b6000602082019050610a486000830184610a24565b92915050565b600080fd5b6000819050919050565b610a6681610a53565b8114610a7157600080fd5b50565b600081359050610a8381610a5d565b92915050565b600060208284031215610a9f57610a9e610a4e565b5b6000610aad84828501610a74565b91505092915050565b610abf81610a53565b82525050565b6000602082019050610ada6000830184610ab6565b92915050565b6000610aeb82610978565b9050919050565b610afb81610ae0565b82525050565b6000602082019050610b166000830184610af2565b92915050565b6000610b2782610a00565b9050919050565b610b3781610b1c565b82525050565b6000602082019050610b526000830184610b2e565b92915050565b60008060408385031215610b6f57610b6e610a4e565b5b6000610b7d85828601610a74565b9250506020610b8e85828601610a74565b9150509250929050565b610ba181610998565b82525050565b610bb08161093f565b82525050565b610bbf81610a53565b82525050565b610bce81610978565b82525050565b61010082016000820151610beb6000850182610b98565b506020820151610bfe6020850182610b98565b506040820151610c116040850182610ba7565b506060820151610c246060850182610b98565b506080820151610c376080850182610bb6565b5060a0820151610c4a60a0850182610bb6565b5060c0820151610c5d60c0850182610bb6565b5060e0820151610c7060e0850182610bc5565b50505050565b600061010082019050610c8c6000830184610bd4565b92915050565b600081519050610ca181610a5d565b92915050565b600060208284031215610cbd57610cbc610a4e565b5b6000610ccb84828501610c92565b91505092915050565b61010082016000820151610ceb6000850182610b98565b506020820151610cfe6020850182610b98565b506040820151610d116040850182610ba7565b506060820151610d246060850182610b98565b506080820151610d376080850182610bb6565b5060a0820151610d4a60a0850182610bb6565b5060c0820151610d5d60c0850182610bb6565b5060e0820151610d7060e0850182610bc5565b50505050565b600061010082019050610d8c6000830184610cd4565b92915050565b7f4e487b7100000000000000000000000000000000000000000000000000000000600052601160045260246000fd5b6000610dcc82610a53565b9150610dd783610a53565b9250828203905081811115610def57610dee610d92565b5b92915050565b6000606082019050610e0a60008301866109aa565b610e1760208301856109aa565b610e246040830184610ab6565b949350505050565b600081519050919050565b600081905092915050565b60005b83811015610e60578082015181840152602081019050610e45565b60008484015250505050565b6000610e7782610e2c565b610e818185610e37565b9350610e91818560208601610e42565b80840191505092915050565b6000610ea98284610e6c565b915081905092915050565b60008115159050919050565b610ec981610eb4565b8114610ed457600080fd5b50565b600081519050610ee681610ec0565b92915050565b600060208284031215610f0257610f01610a4e565b5b6000610f1084828501610ed7565b91505092915050565b600082825260208201905092915050565b7f5354460000000000000000000000000000000000000000000000000000000000600082015250565b6000610f60600383610f19565b9150610f6b82610f2a565b602082019050919050565b60006020820190508181036000830152610f8f81610f53565b9050919050565b6000604082019050610fab60008301856109aa565b610fb86020830184610ab6565b9392505050565b7f5341000000000000000000000000000000000000000000000000000000000000600082015250565b6000610ff5600283610f19565b915061100082610fbf565b602082019050919050565b6000602082019050818103600083015261102481610fe8565b905091905056fea264697066735822122055e81b441608e253276a5f51dd9505afee92caec5f2989825bebb76dad0f6a5f64736f6c63430008180033",
  "linkReferences": {},
  "deployedLinkReferences": {}
}