{
  "_format": "hh-sol-artifact-1",
  "contractName": "SingleSwap",
  "sourceName": "contracts/UniSwap.sol",
  "abi": [
    {
      "inputs": [],
      "stateMutability": "nonpayable",
      "type": "constructor"
    },
    {
      "inputs": [],
      "name": "DAI",
      "outputs": [
        {
          "internalType": "address",
          "name": "",
          "type": "address"
        }
      ],
      "stateMutability": "view",
      "type": "function"
    },
    {
      "inputs": [],
      "name": "DAI_WHALE",
      "outputs": [
        {
          "internalType": "address",
          "name": "",
          "type": "address"
        }
      ],
      "stateMutability": "view",
      "type": "function"
    },
    {
      "inputs": [],
      "name": "USDC",
      "outputs": [
        {
          "internalType": "address",
          "name": "",
          "type": "address"
        }
      ],
      "stateMutability": "view",
      "type": "function"
    },
    {
      "inputs": [],
      "name": "USDC_WHALE",
      "outputs": [
        {
          "internalType": "address",
          "name": "",
          "type": "address"
        }
      ],
      "stateMutability": "view",
      "type": "function"
    },
    {
      "inputs": [],
      "name": "WETH",
      "outputs": [
        {
          "internalType": "address",
          "name": "",
          "type": "address"
        }
      ],
      "stateMutability": "view",
      "type": "function"
    },
    {
      "inputs": [],
      "name": "linkToken",
      "outputs": [
        {
          "internalType": "contract IIWETH",
          "name": "",
          "type": "address"
        }
      ],
      "stateMutability": "view",
      "type": "function"
    },
    {
      "inputs": [],
      "name": "owner",
      "outputs": [
        {
          "internalType": "address payable",
          "name": "",
          "type": "address"
        }
      ],
      "stateMutability": "view",
      "type": "function"
    },
    {
      "inputs": [],
      "name": "poolFee",
      "outputs": [
        {
          "internalType": "uint24",
          "name": "",
          "type": "uint24"
        }
      ],
      "stateMutability": "view",
      "type": "function"
    },
    {
      "inputs": [],
      "name": "routerAddress",
      "outputs": [
        {
          "internalType": "address",
          "name": "",
          "type": "address"
        }
      ],
      "stateMutability": "view",
      "type": "function"
    },
    {
      "inputs": [
        {
          "internalType": "uint256",
          "name": "amountIn",
          "type": "uint256"
        }
      ],
      "name": "swapExactInputSingle",
      "outputs": [
        {
          "internalType": "uint256",
          "name": "amountOut",
          "type": "uint256"
        }
      ],
      "stateMutability": "nonpayable",
      "type": "function"
    },
    {
      "inputs": [
        {
          "internalType": "uint256",
          "name": "amountOut",
          "type": "uint256"
        },
        {
          "internalType": "uint256",
          "name": "amountInMaximum",
          "type": "uint256"
        }
      ],
      "name": "swapExactOutputSingle",
      "outputs": [
        {
          "internalType": "uint256",
          "name": "amountIn",
          "type": "uint256"
        }
      ],
      "stateMutability": "nonpayable",
      "type": "function"
    },
    {
      "inputs": [],
      "name": "swapRouter",
      "outputs": [
        {
          "internalType": "contract ISwapRouter",
          "name": "",
          "type": "address"
        }
      ],
      "stateMutability": "view",
      "type": "function"
    }
  ],
  "bytecode": "0x60a060405273e592427a0aece92de3edee1f18e0157c0586156473ffffffffffffffffffffffffffffffffffffffff1660809073ffffffffffffffffffffffffffffffffffffffff1681525073c02aaa39b223fe8d0a0e5c4f27ead9083c756cc2600160006101000a81548173ffffffffffffffffffffffffffffffffffffffff021916908373ffffffffffffffffffffffffffffffffffffffff1602179055503480156100ac57600080fd5b50336000806101000a81548173ffffffffffffffffffffffffffffffffffffffff021916908373ffffffffffffffffffffffffffffffffffffffff16021790555060805161112461012b600039600081816102f5015281816103e3015281816104db015281816105390152818161062601526106e401526111246000f3fe608060405234801561001057600080fd5b50600436106100b45760003560e01c806389a302711161007157806389a302711461017f5780638da5cb5b1461019d578063ad5c4648146101bb578063c31c9c07146101d9578063c4b69a18146101f7578063e0bab4c414610227576100b4565b8063089fe6aa146100b9578063103779d8146100d75780633268cc56146100f557806357970e93146101135780636130b4a11461013157806373bd43ad1461014f575b600080fd5b6100c1610245565b6040516100ce9190610a20565b60405180910390f35b6100df61024b565b6040516100ec9190610a7c565b60405180910390f35b6100fd610263565b60405161010a9190610a7c565b60405180910390f35b61011b61027b565b6040516101289190610af6565b60405180910390f35b6101396102a1565b6040516101469190610a7c565b60405180910390f35b61016960048036038101906101649190610b4c565b6102b9565b6040516101769190610b88565b60405180910390f35b610187610485565b6040516101949190610a7c565b60405180910390f35b6101a561049d565b6040516101b29190610bc4565b60405180910390f35b6101c36104c1565b6040516101d09190610a7c565b60405180910390f35b6101e16104d9565b6040516101ee9190610c00565b60405180910390f35b610211600480360381019061020c9190610c1b565b6104fd565b60405161021e9190610b88565b60405180910390f35b61022f61073d565b60405161023c9190610a7c565b60405180910390f35b610bb881565b7397f991971a37d4ca58064e6a98fc563f03a71e5c81565b73e592427a0aece92de3edee1f18e0157c0586156481565b600160009054906101000a900473ffffffffffffffffffffffffffffffffffffffff1681565b7397f991971a37d4ca58064e6a98fc563f03a71e5c81565b60006102db73c02aaa39b223fe8d0a0e5c4f27ead9083c756cc2333085610755565b61031a73c02aaa39b223fe8d0a0e5c4f27ead9083c756cc27f0000000000000000000000000000000000000000000000000000000000000000846108ad565b600060405180610100016040528073c02aaa39b223fe8d0a0e5c4f27ead9083c756cc273ffffffffffffffffffffffffffffffffffffffff168152602001736b175474e89094c44da98b954eedeac495271d0f73ffffffffffffffffffffffffffffffffffffffff168152602001610bb862ffffff1681526020013373ffffffffffffffffffffffffffffffffffffffff16815260200142815260200184815260200160008152602001600073ffffffffffffffffffffffffffffffffffffffff1681525090507f000000000000000000000000000000000000000000000000000000000000000073ffffffffffffffffffffffffffffffffffffffff1663414bf389826040518263ffffffff1660e01b815260040161043a9190610d39565b6020604051808303816000875af1158015610459573d6000803e3d6000fd5b505050506040513d601f19601f8201168201806040525081019061047d9190610d6a565b915050919050565b73a0b86991c6218b36c1d19d4a2e9eb0ce3606eb4881565b60008054906101000a900473ffffffffffffffffffffffffffffffffffffffff1681565b73c02aaa39b223fe8d0a0e5c4f27ead9083c756cc281565b7f000000000000000000000000000000000000000000000000000000000000000081565b600061051f73c02aaa39b223fe8d0a0e5c4f27ead9083c756cc2333085610755565b61055e73c02aaa39b223fe8d0a0e5c4f27ead9083c756cc27f0000000000000000000000000000000000000000000000000000000000000000846108ad565b600060405180610100016040528073c02aaa39b223fe8d0a0e5c4f27ead9083c756cc273ffffffffffffffffffffffffffffffffffffffff168152602001736b175474e89094c44da98b954eedeac495271d0f73ffffffffffffffffffffffffffffffffffffffff168152602001610bb862ffffff1681526020013373ffffffffffffffffffffffffffffffffffffffff168152602001428152602001858152602001848152602001600073ffffffffffffffffffffffffffffffffffffffff1681525090507f000000000000000000000000000000000000000000000000000000000000000073ffffffffffffffffffffffffffffffffffffffff1663db3e2198826040518263ffffffff1660e01b815260040161067d9190610e39565b6020604051808303816000875af115801561069c573d6000803e3d6000fd5b505050506040513d601f19601f820116820180604052508101906106c09190610d6a565b9150828210156107365761070a73c02aaa39b223fe8d0a0e5c4f27ead9083c756cc27f000000000000000000000000000000000000000000000000000000000000000060006108ad565b61073573c02aaa39b223fe8d0a0e5c4f27ead9083c756cc2333085876107309190610e84565b610755565b5b5092915050565b736b175474e89094c44da98b954eedeac495271d0f81565b6000808573ffffffffffffffffffffffffffffffffffffffff166323b872dd60e01b86868660405160240161078c93929190610eb8565b604051602081830303815290604052907bffffffffffffffffffffffffffffffffffffffffffffffffffffffff19166020820180517bffffffffffffffffffffffffffffffffffffffffffffffffffffffff83818316178352505050506040516107f69190610f60565b6000604051808303816000865af19150503d8060008114610833576040519150601f19603f3d011682016040523d82523d6000602084013e610838565b606091505b509150915081801561086657506000815114806108655750808060200190518101906108649190610faf565b5b5b6108a5576040517f08c379a000000000000000000000000000000000000000000000000000000000815260040161089c90611039565b60405180910390fd5b505050505050565b6000808473ffffffffffffffffffffffffffffffffffffffff1663095ea7b360e01b85856040516024016108e2929190611059565b604051602081830303815290604052907bffffffffffffffffffffffffffffffffffffffffffffffffffffffff19166020820180517bffffffffffffffffffffffffffffffffffffffffffffffffffffffff838183161783525050505060405161094c9190610f60565b6000604051808303816000865af19150503d8060008114610989576040519150601f19603f3d011682016040523d82523d6000602084013e61098e565b606091505b50915091508180156109bc57506000815114806109bb5750808060200190518101906109ba9190610faf565b5b5b6109fb576040517f08c379a00000000000000000000000000000000000000000000000000000000081526004016109f2906110ce565b60405180910390fd5b5050505050565b600062ffffff82169050919050565b610a1a81610a02565b82525050565b6000602082019050610a356000830184610a11565b92915050565b600073ffffffffffffffffffffffffffffffffffffffff82169050919050565b6000610a6682610a3b565b9050919050565b610a7681610a5b565b82525050565b6000602082019050610a916000830184610a6d565b92915050565b6000819050919050565b6000610abc610ab7610ab284610a3b565b610a97565b610a3b565b9050919050565b6000610ace82610aa1565b9050919050565b6000610ae082610ac3565b9050919050565b610af081610ad5565b82525050565b6000602082019050610b0b6000830184610ae7565b92915050565b600080fd5b6000819050919050565b610b2981610b16565b8114610b3457600080fd5b50565b600081359050610b4681610b20565b92915050565b600060208284031215610b6257610b61610b11565b5b6000610b7084828501610b37565b91505092915050565b610b8281610b16565b82525050565b6000602082019050610b9d6000830184610b79565b92915050565b6000610bae82610a3b565b9050919050565b610bbe81610ba3565b82525050565b6000602082019050610bd96000830184610bb5565b92915050565b6000610bea82610ac3565b9050919050565b610bfa81610bdf565b82525050565b6000602082019050610c156000830184610bf1565b92915050565b60008060408385031215610c3257610c31610b11565b5b6000610c4085828601610b37565b9250506020610c5185828601610b37565b9150509250929050565b610c6481610a5b565b82525050565b610c7381610a02565b82525050565b610c8281610b16565b82525050565b610c9181610a3b565b82525050565b61010082016000820151610cae6000850182610c5b565b506020820151610cc16020850182610c5b565b506040820151610cd46040850182610c6a565b506060820151610ce76060850182610c5b565b506080820151610cfa6080850182610c79565b5060a0820151610d0d60a0850182610c79565b5060c0820151610d2060c0850182610c79565b5060e0820151610d3360e0850182610c88565b50505050565b600061010082019050610d4f6000830184610c97565b92915050565b600081519050610d6481610b20565b92915050565b600060208284031215610d8057610d7f610b11565b5b6000610d8e84828501610d55565b91505092915050565b61010082016000820151610dae6000850182610c5b565b506020820151610dc16020850182610c5b565b506040820151610dd46040850182610c6a565b506060820151610de76060850182610c5b565b506080820151610dfa6080850182610c79565b5060a0820151610e0d60a0850182610c79565b5060c0820151610e2060c0850182610c79565b5060e0820151610e3360e0850182610c88565b50505050565b600061010082019050610e4f6000830184610d97565b92915050565b7f4e487b7100000000000000000000000000000000000000000000000000000000600052601160045260246000fd5b6000610e8f82610b16565b9150610e9a83610b16565b9250828203905081811115610eb257610eb1610e55565b5b92915050565b6000606082019050610ecd6000830186610a6d565b610eda6020830185610a6d565b610ee76040830184610b79565b949350505050565b600081519050919050565b600081905092915050565b60005b83811015610f23578082015181840152602081019050610f08565b60008484015250505050565b6000610f3a82610eef565b610f448185610efa565b9350610f54818560208601610f05565b80840191505092915050565b6000610f6c8284610f2f565b915081905092915050565b60008115159050919050565b610f8c81610f77565b8114610f9757600080fd5b50565b600081519050610fa981610f83565b92915050565b600060208284031215610fc557610fc4610b11565b5b6000610fd384828501610f9a565b91505092915050565b600082825260208201905092915050565b7f5354460000000000000000000000000000000000000000000000000000000000600082015250565b6000611023600383610fdc565b915061102e82610fed565b602082019050919050565b6000602082019050818103600083015261105281611016565b9050919050565b600060408201905061106e6000830185610a6d565b61107b6020830184610b79565b9392505050565b7f5341000000000000000000000000000000000000000000000000000000000000600082015250565b60006110b8600283610fdc565b91506110c382611082565b602082019050919050565b600060208201905081810360008301526110e7816110ab565b905091905056fea26469706673582212206dd80d3c35561b457193f83650e5d1bcbd60f195a80a9907a9abd20cf8b387cb64736f6c63430008180033",
  "linkReferences": {},
  "deployedLinkReferences": {}
}